:020000040800F2
:10000000882E0020D9000008FD220008211F0008CA
:1000100000000000000000000000000000000000E0
:1000200000000000000000000000000001230008A4
:100030000000000000000000FF2200080323000869
:10004000090100080000000009010008090100087A
:100050000901000809010008090100080901000858
:10006000000000000901000809010008090100085A
:10007000090100080901000800000000090100084A
:100080000000000000000000000000000000000070
:10009000090100080000000009010008090100082A
:1000A000000000000901000800000000000000003E
:1000B000090100080901000800000000000000001C
:1000C0000448854600F0E6FE004800476DA200089F
:1000D000C046C046882E00200C4880F308880C4893
:1000E0000168090E0B4A914205D10B480B4901608A
:1000F0000B480C4901600C4880470C480047FEE75C
:10010000FEE7FEE7FEE7FEE7FEE70000882E0020A0
:10011000040000001F000000341002400100000035
:1001200000000140000000009D230008C1000008FD
:1001300030B50B46014600202022012409E00D467F
:10014000D5409D4205D31D469540491B2546954007
:1001500040191546521E002DF1DC30BDF0B51FB41C
:100160000646002082B005464024019100901BE025
:10017000019922460F46304600F098FC049A059BF0
:10018000801A994110D310461946224600F07EFC91
:10019000361A8F410197224601200021009F00F06E
:1001A00075FC38184D4100902046641E0028DFDCA5
:1001B000019B00982946324607B0F0BDF8B50024EF
:1001C0002546002904DA0E46012400214042B141AF
:1001D000002B04DA1E46002352420125B341FFF7EB
:1001E000BDFF8C4617461E46AC4203D00025404258
:1001F0008D41AC46002C02D0002657429E416146FC
:100200003A46334601B0F0BDF0B51FB486B00020C9
:100210000090019002900698069980B20490079889
:10022000090C02040014114307900027089D099847
:1002300006913E463C4603900398A9B20204000C86
:10024000039004982D0C154348430021224600F0EA
:100250001DFCC719714110340E46402CECDB3846AA
:10026000029A00F013FC009A019B801800905941FB
:1002700002980191103002904028CCDB00980BB01E
:10028000F0BD03460B439B0703D009E008C9121FCA
:1002900008C0042AFAD203E00B780370401C491C02
:1002A000521EF9D27047D2B201E00270401C491EC2
:1002B000FBD270470022F6E710B513460A46044603
:1002C0001946FFF7F0FF204610BD421C0178401C84
:1002D0000029FBD1801A7047F8B502464A40D40F76
:1002E00042004B0052085B089A4202D2024608467E
:1002F00011464A0023D0C30D4A00DDB2120EAD1ADA
:10030000202D35DA49020126490AF6058A19002C02
:1003100000D0524220214F1B1146B9402A411018EB
:10032000C20D9A4221D0002C17D0012D08DCDA052D
:10033000801AD20F8019D207DBB200F0E3FBF8BDC0
:10034000DA05801A012340001B06C01880185A42A3
:100350008018CA0F1043490007E04908C20711433B
:10036000DA05801A80194008801800F0C3FBF8BD38
:1003700061000122511A001BF7E70122D207514008
:10038000AAE70122D2075040A6E7024670B54A40CC
:10039000D30FDB0740002DD04A002AD0010E140EE7
:1003A000000212020919400A520A8418E5010446A3
:1003B0005443000A120A2E045043A4194219200C77
:1003C000C543AA18120C0125AD03521C5219120480
:1003D0007F39240400D0521C104301D44000491E30
:1003E000C2B20C06C0092018401C4008802A02D066
:1003F00003E0002070BD40084000002900DA002022
:10040000184370BD70B502464A40D50F40004A00FF
:10041000ED0740085208002814D0002A12D0C40D5D
:10042000D30D41020120C0055202490A520AE41AC2
:10043000091812187D34914201D3641C00E0490070
:10044000002C01DA002070BD0023914201D3891AEB
:100450000343400849000028F7D100290AD09142FF
:1004600002D10121C90705E0914201D2012101E039
:100470000121C943E005C018401900F03BFB70BDE5
:10048000420005D04200120E52428A4201DB002097
:100490007047C90508187047F0B507460846584028
:1004A00087B0C00F049048000E4659004008490824
:1004B000BC1A884105D2384631461E4617460B46BF
:1004C00002465800400810434DD0300D03904005BF
:1004D0005900400D490D0590401A0290402873DAEA
:1004E00018030121000B09050843019004980092AC
:1004F000002806D01146019A4942002090410091FF
:100500000190029840210A1A0199009800F0BEFA61
:1005100005460C466B4607CB00F0D9FAC01971416D
:10052000039A0E0D0023D71756401A467A401643F9
:1005300044D0049A002A2DD0029A012A039A15DC8D
:100540001205C01A914101263605001C7141D20FD7
:10055000059ED2070093019202962A46234600F098
:1005600062FB07B0F0BD38463146FAE71605234A6C
:100570000F46B218C01AB74101210905001C4F41AE
:1005800000187F41114618187941E20F10436D1988
:10059000644113E0E2076D0815436408C207144381
:1005A000039A01261205C01A91413605001C7141BB
:1005B000CE07400830434908C01851412A46234617
:1005C00000F024FBCDE7FFE7049801224000C117AB
:1005D000121A00238B4104983146C417381AA141DE
:1005E000EEE730B40124E407634030BC54E730B494
:1005F0000124E407614030BC4EE700000000E0FF4A
:10060000F0B51FB488B00B990998002448400999A7
:10061000C00F490049080991C0070B990090490093
:1006200049080B9109990898A64608431CD00B99D4
:100630000A98084318D0099801244000420D480048
:10064000410D099824050003000B204309900B98E5
:100650000003000B20430B9050181C494018002247
:1006600001901446104605E0002001460DB0F0BD93
:10067000032801DA034600E003239C46C11A0AAEB0
:100680000AE05F0008ADED5B4F00F75B7D4300279C
:10069000AA187C41491C5B1E6145F2DD410004AB98
:1006A0005A522104120C0A43240C401C0828DFDB98
:1006B000019802900099704601910090059B049A60
:1006C0000799069800F0AFFAD0E700000DFCFFFF95
:1006D000F0B50C465C4085B0E40FE40703944C0091
:1006E00000266408590094464908024602962243AF
:1006F00021D062460A431ED06200570D4A000E0305
:100700002303550D012402462C492405781B1B0B9D
:10071000360B401823432643614600901C46501A6E
:10072000B44103D30098401C009002E09218009856
:100730005B41002803DA0020014605B0F0BD00202F
:10074000012109050746864611E064461D46141B33
:10075000B54106D36546521BB341744607430C436B
:10076000A646CD0740084908284392185B41054634
:100770000D43EAD11046184313D060461946504045
:100780007140084306D06046101AB34106D20122D8
:10079000002306E000220123DB0702E00122D2430E
:1007A0005310009874460105381C6141029C039D5A
:1007B0000019694100F02AFABFE70000FD030000BC
:1007C00070B54B005B0803430BD04B005C0D00265B
:1007D00033466542B341D417AD1AA34102DB002072
:1007E000014670BD12053018514170BDC217C10FCE
:1007F000504010B54018CA079623002100F082F936
:1008000010BD10B500229623114600F07BF910BDF3
:100810000A4670B5C917D30F4A4048400025C11891
:1008200014466C41DA0796232046002C03D0B623E9
:1008300000F068F970BD08460021F9E70EB50549DA
:100840000291002100910A460B46019100F0EBF95C
:1008500003B000BD330400003EB5CA17CB0F00241F
:1008600050405140C0186141DA07054B0293019294
:1008700000942246234600F0D6F903B030BD0000B4
:1008800033040000C20F410040020123400ADB058F
:10089000D207090EC0187F2901DA00207047962977
:1008A00003DC9623591AC84001E096398840002A93
:1008B000F4D040427047410040020122400AD20574
:1008C000090E80187F2901DA00207047962903DC81
:1008D0009622511AC84070479639884070470000E8
:1008E00070B5CD0F4A0009030123090B1B051943FD
:1008F0000B4BED070024520D9A4201DA002070BD27
:10090000074B34339A4203DC9A1A00F0CFF802E026
:100910000449511888402C43F1D0404270BD00007A
:10092000FF030000CDFBFFFF4A0009030123090B71
:100930001B051943094B10B5520D9A4201DA0020EC
:1009400010BD064B34339A4203DC9A1A00F0AEF81D
:1009500010BD03495118884010BD0000FF0300007E
:10096000CDFBFFFF70B5CD0F4A0009030123090B32
:100970001B0519430D4BED070024520D9A4202DA74
:100980000020014670BD094B34339A4203DC9A1AA9
:1009900000F08CF803E0064BD21800F077F82C43F7
:1009A000F0D0002240428A41114670BDFF03000092
:1009B000CDFBFFFFC20FD207400040080BD0C10D96
:1009C0000723DB01C91840020905400A1143C20888
:1009D00040071143704700200146704710B50029B9
:1009E00004DB0124E40740428C412146002B04DB58
:1009F0001C460123DB075242A3418B4200D18242B5
:100A000010BD000010B5002904DB0124E4074042BA
:100A10008C412146002B04DB1C460123DB0752429C
:100A2000A341994200D1904210BD0000CB0FDB07DB
:100A3000490010B5490802460A4307D00A0D0724A9
:100A40000903E401090B121B002A01DC002010BD80
:100A5000C900440F0C43C100E018D205801800F013
:100A600049F810BD0122D207002800DB101A002926
:100A700000DB511A814270470122D207002800DBB7
:100A8000101A002900DB511A8842704710B5202A3D
:100A900004DB0146203A9140002010BD9140202304
:100AA0009C1A0346E3401943904010BD10B5202A1C
:100AB00004DB0846203AD040002110BD0B46D3404D
:100AC000D0402024A21A91400843194610BD10B509
:100AD000202A06DBCB170846203A1041C1170B43EA
:100AE00006E00B461341D0402024A21A914008434F
:100AF000194610BD002904DA401C490001D1400804
:100B00004000704770B40024050C05D11024000487
:100B100002D1002921D01124050E01D10002083490
:100B2000050F01D10001241D850F01D18000A41CF7
:100B3000002801DB4000641C002908D020252E1B62
:100B40000D46F540A14000D001212943084301068C
:100B50001B1B000ADB1D02D5002070BC7047DB05A3
:100B6000181880180029F8DA401C4900F5D170BC2B
:100B700040084000704770B5002801DC002070BDBF
:100B8000410040020126400AF605090E8019CA07F5
:100B900001D14000491E4D10002211463F35334619
:100BA000CB409B18D418844201D8001B1A46400041
:100BB000491C1729F3DD5100814202D20021C943AB
:100BC00000E00021E8058018FFF794FF70BD10B524
:100BD00041000DD04100090E962909DC7E290ADC6E
:100BE00007DB410205D0C00F7F21C007C9054018AF
:100BF00010BD002010BD9622541A20210A1B014668
:100C00009140E040FFF776FFA04010BD10B5002BEB
:100C100008DA0024401C614192185B411A4301D15B
:100C20004008400010BDF0B51FB482B005460C006E
:100C300003D0084601F000FE02E001F0FDFD203087
:100C40000246009021462846FFF720FF049B059AA4
:100C500004460F4618431143084314D01846104366
:100C60001BD0009840210A1A18460599FFF71EFF6D
:100C700005460E46009A05990498FFF707FF0843BA
:100C800005D0012004E02046394607B0F0BD002021
:100C9000C11705430E432C43374300990E98630553
:100CA000401A7905E40A00220C43FD0A0A3002D5F5
:100CB00000200146E9E70105101969410C9C0D9DD2
:100CC00000196941FFF7A2FFDFE70000F8B505460C
:100CD000480040080C46284304D06000184A400DE4
:100CE000904201DD2846F8BD15493539884210DCAF
:100CF00088420BDB290D200308432903014305D05B
:100D0000E00F1049C00741180020F8BD002001463F
:100D1000F8BD161A4020821B28462146FFF7B6FE72
:100D200007460091284621463246FFF7BFFE3A4665
:100D3000009BFFF76BFF3246FFF7A8FEF8BD0000EF
:100D4000330400000000F03FF0B55F0085B07F0D78
:100D5000CD0F03974E0001273F051B0309031B0B13
:100D6000ED07090B3B43760D394397189C460297D4
:100D700000245B41039F01957F1E00949E460397CC
:100D800013E0029F7346C01B994106D50127FF0758
:100D90007D400F4600214042B9416346171A8B41FE
:100DA000EFD3761E0018039F4941BE42F5DA024692
:100DB0000A4307D00022134602960195FFF733FF3E
:100DC00005B0F0BD20460199FAE700004A0009038A
:100DD0000123090B1B0519430A4B10B5520D9A420A
:100DE00002DA0020014610BD064B34339A4203DC80
:100DF0009A1AFFF75BFE10BD034BD218FFF746FEB1
:100E000010BD0000FF030000CDFBFFFF10B5410047
:100E1000C40F0A0E40020121400AC905E407401828
:100E20007F2A07DA7D2A00DA7D22763A9040014651
:100E3000002008E0962A09DC1346763B01469940DB
:100E400096239A1AD040FFF755FE01E0963A90405B
:100E5000002C00D0404210BD02000B4800D4821A82
:100E6000002900DB411A914204D30120400791423E
:100E700000D10648EFF300810902090A020E1206AA
:100E8000114381F30088704700000080000000607B
:100E900000207047064C0125064E05E0E36807CCAC
:100EA0002B430C3C98471034B442F7D3FFF70CF9AE
:100EB0005CC500087CC5000872B6FEE770B5044644
:100EC00000F0ECF80546601C02D0044800782418B5
:100ED00000F0E4F8401BA042FAD370BD0C000020E3
:100EE000F8B5002303240125C2E032462E469E4079
:100EF000B446324079D00E79B607B60F012E01D034
:100F0000022E17D186682746B6465E00B740009687
:100F10007646BE43B646CF68009EB7407646374316
:100F2000876046686746BE430F79FF06FF0F9F4004
:100F3000374347600E79F643B6070ED0C66827469A
:100F4000B4465E00B646B7406646BE43B4468F68B8
:100F50007646B74066463743C7600E79B607B60F88
:100F6000022E14D1DE08B60036180096366A5F07E6
:100F7000B446FE0E0F27B646B7406646BE43B4469B
:100F80000F697646B74066463743009E376206686B
:100F90002746B4465E00B646B7406646BE430F7964
:100FA000B446BF07BF0F7646B74066463743076073
:100FB0004E68B603B60F5AD0304F7E6B2E437E6319
:100FC0009F082F4EBF00BE190096B6680F27B44683
:100FD0009E07360FB646B7406646BE4305273F0715
:100FE000B446B84202D100271AE040E0254FB8428B
:100FF00001D1012714E0244FB84201D102270FE0AC
:10100000224FB84201D103270AE0214FB84201D153
:10101000042705E01F4FB84201D1052700E006274D
:101020007646B74066463743009EB7601A4EB668AC
:101030004F689643FF0200D51643174FBE60FE6807
:101040004F689643BF0200D51643134FFE607E687B
:101050004F689643BF0300D516430F4F7E603E682E
:101060004F689643FF0300D516430B4A16605B1C7E
:101070000A681646DA4000D037E7F8BD0010024093
:10108000000001400004005000080050000C005017
:1010900000100050001C005000040140014880680E
:1010A000704700000C00002070B5024640325378B3
:1010B000202B1CD11378012B19D001231370242469
:1010C0005470046825689D432560046825681E03E4
:1010D000B5432560046825680D43256000680168F4
:1010E00019430160202050700020107070BD022054
:1010F00070BD70B5024640325378202B1BD1137857
:10110000012B18D0012414702423537003681D6828
:10111000A5431D6005682B680F263602B3430902FC
:101120001943296000680168214301602020507044
:101130000020107070BD022070BD000070B504006A
:1011400006D02546403568780026002802D005E004
:10115000012070BD2E70204600F09AF9242068709E
:10116000206801684908490001600F21606809068C
:1011700088432168086121688A680120C00382438E
:101180008A60E1680129A16808D0212292021143F6
:1011900022689160E168022902D005E00143F7E787
:1011A00001212268C902516021684A680F4B1A4325
:1011B0004A602168CA688243CA606169206908433D
:1011C000A169090208432168C860216AE0690843EF
:1011D000216808602068016801221143016066648B
:1011E000202068702663AE70002070BD0080000271
:1011F000FFB5054604464035687883B0202875D190
:101200000C98002814D00D98002811D028780128B7
:101210006CD001202870FFF741FF074601220090A3
:101220001923D103204600F08BFF002874D103E07E
:101230000120400260646FE0222068704020A870A6
:10124000002666640C9860620D98608566630E984F
:101250000090019704A90EC9204600F0FBFE00286B
:1012600001D02E7058E0618D3448FF2905D9FF2246
:10127000228501231B06009006E0618D21850090E8
:10128000208D0123C2B25B062046049900F042FF84
:1012900000970022042120460E9B00F051FF0028F9
:1012A0003AD12068406A616A0870606A401C6062D6
:1012B000208D401E81B22185608D401E6085608D2D
:1012C00000281FD000291DD1009700228021204630
:1012D0000E9B00F035FF00281ED1608DFF2806D937
:1012E000FF22228501231B06009607E024E0608D83
:1012F00020850096208D0123C2B25B06204604990A
:1013000000F008FF608D0028C2D13A4620460E99B1
:1013100000F047FF002802D0012007B0F0BD206890
:101320002021C16120684268054B1A404260697003
:10133000AE702E700020F0E70220EEE7002400805F
:1013400000E800FEFFB5054604464035687883B0E6
:10135000202872D10C98002814D00D98002811D0A4
:101360002878012869D001202870FFF797FE0746EA
:10137000012200901923D103204600F0E1FE00284D
:1013800071D103E00120400260646CE021206870AC
:101390004020A870002666640C9860620D986085F5
:1013A00066630E980090019704A90EC9204600F0CC
:1013B00081FE002801D02E7055E0608DFF2805D9F0
:1013C000FF22228501231B06009606E0608D208502
:1013D0000096208D0123C2B25B062046049900F0DE
:1013E00099FE3A4620460E9900F006FF00283AD1B1
:1013F000606A216800788862606A401C6062608D63
:10140000401E6085208D401E80B22085618D0029A0
:101410001FD000281DD100970022802120460E9B5E
:1014200000F08EFE00281ED1608DFF2806D9FF2215
:10143000228501231B06009607E024E0608D2085AD
:101440000096208D0123C2B25B062046049900F06D
:1014500061FE608D0028C4D13A4620460E9900F006
:10146000A0FE002802D0012007B0F0BD2068202196
:10147000C16120684268054B1A4042606970AE70D5
:101480002E700020F0E70220EEE7000000E800FEEA
:1014900010B586B0044614216846FEF70BFF1149CB
:1014A000206888421CD1104CE06A01210843E062A8
:1014B000E06A08400590032040020090122001904D
:1014C0000020029003200390062004900520694626
:1014D0000007FFF705FDA06B012149050843A06344
:1014E00006B010BD00540040001002400248816860
:1014F00002788918816070470C00002010B50848F8
:1015000000240168402211430160032000F00AF822
:10151000002801D0012401E000F026F8204610BD8B
:101520000020024070B504460D4D7D202978C00092
:10153000FEF7FEFD01460B480068FEF7F9FD00F0DE
:1015400013FC002809D1042C07D200222146401E9A
:1015500000F016F800206C6070BD012070BD000026
:101560000C000020180000200448416B01221143A8
:101570004163816B02041143816370470010024094
:1015800010B501F0A7F910BDF8B5044600780027A2
:10159000504D800674D54F4E403EB06BC00004D411
:1015A000B06BA9050843B06301274B480168C90522
:1015B00011D40168821511430160FFF76FFD00909F
:1015C00005E0FFF76BFD0099401A642837D84248C0
:1015D0000068C005F5D532680321090560680A4036
:1015E0000140914208D08103890F032904D1316859
:1015F000890301D50120F8BD2A69032109040A40A5
:1016000022D0084090421FD02078800631D528692A
:101610002A6988430121C9040A432A612A698A4345
:101620002A612861C0050FD5FFF738FD009008E05A
:10163000FFF734FD0099411A2848814201D903205F
:10164000F8BD28698005F3D52078800611D561683A
:101650008803800F032805D13268000582430140CA
:101660000A4332602869032261681204114008436A
:101670002861002F04D0B16B012000078143B163C2
:101680002078800705D5E8680C218843A1680843C5
:10169000E8602078400706D5E8680321890288437E
:1016A000E1680843E8602078000706D5E868032170
:1016B0000903884321690843E8602078000606D5BD
:1016C000E86803218904884361690843E8600020D1
:1016D000F8BD000040100240007000408813000078
:1016E000F8B50E46050038D05E480068C007C00F48
:1016F000B04214D25B4C2068400840003043206068
:10170000FFF7CCFC074605E0FFF7C8FCC11B5648B5
:1017100081427AD82068C007C00FB042F4D128783F
:10172000524C800705D5E068F0218843A96808433A
:10173000E0602878C00752D06868022806D00328E5
:1017400007D0216801280AD0890504E021688903AF
:1017500001E021688901002903DB0120F8BD490768
:10176000F9E7E168890889000143E160FFF796FC29
:101770000746686802280AD0032814D001281ED022
:1017800029E0FFF78BFCC11B374881423DD8E06858
:101790000007800F0228F4D121E0FFF77FFCC11B76
:1017A0003148814231D8E0680007800F0328F4D126
:1017B00015E0FFF773FCC11B2B48814225D8E06878
:1017C0000007800F0128F4D109E0FFF767FCC11B77
:1017D0002548814219D8E0680007800FF5D12148DB
:1017E0000168C907C90FB14217D901684908490002
:1017F00031430160FFF752FC074608E005E0FFF7C0
:101800004DFCC11B1848814201D90320F8BD154881
:101810000068C007C00FB042F1D12878400706D554
:10182000E068072109028843E9680843E0602878F6
:10183000000707D5E0680721C90288432969C90064
:101840000843E06000F03AF8E168094A0906090F28
:10185000515CC8400749086007480068FFF762FE0E
:10186000F8BD000000200240881300000010024074
:1018700034B5000818000020100000200448054975
:101880000068C968044A4905490F515CC84070475F
:1018900018000020001002404DB50008044805491A
:1018A0000068C968044A8904490F515CC840704700
:1018B00018000020001002404DB5000870B51A4A0B
:1018C000D3681A490C2018408D0004280CD04E0013
:1018D000082810D00C2810D050680004410F0120B7
:1018E000C003491C884070BD1068C00601D5084679
:1018F00070BD284670BD304670BD98020C4C000F7C
:10190000205C1B029C0FD368641CDB0301D53146AD
:1019100003E01268D20600D4294600F0A4FF224654
:101920000023FEF71BFC70BD0010024000093D00C3
:1019300044B50008FEB505007ED0F74CE7680C20E2
:10194000E66807400120000406402878C00747D019
:10195000082F05D00C2F0AD101200004864206D1A1
:10196000206880033CD568680028E5D038E0012075
:1019700069680004814203D121680143216011E0BC
:10198000052301221B0492049942216802D11143CC
:101990002160F1E7814321602168014000912068C6
:1019A00090432060686800280DD0FFF777FB009017
:1019B00005E0FFF773FB0099401A64287ED8206881
:1019C0008003F6D50CE0FFF769FB009005E0FFF718
:1019D00065FB0099401A6428F0D820688003F6D48B
:1019E000287880075DD5E868810604D52268202123
:1019F0000A43226088430923042F0DD00C2F01D104
:101A0000002E09D000283CD0216899430143216071
:101A1000FFF744FB064628E02168490701D5002866
:101A20008AD061681F22120291432A69120211436F
:101A300061602168994300E091E101432160FFF773
:101A40003DFFE16809060A0FB449895CC840B44902
:101A50000860B4480068FFF765FD002874D120E0F5
:101A6000FFF71CFB801B0228A8D820684007F7D589
:101A700060681F21090288432969090208436060E0
:101A80000FE02068400840002060FFF707FB064693
:101A900004E0FFF703FB801B02288FD82068400773
:101AA000F7D42878C00661D5002F0DD0A86900288A
:101AB0004BD02068FF210131084300E0C6E02060E0
:101AC000FFF7ECFA06462DE02068800502D5A869EC
:101AD0000028A5D06068072149038843296A084384
:101AE00060606068297F0002000A090608436060A0
:101AF000286A410B0120C003491C8840E16809069F
:101B00000A0F8649895CC840854908608548006895
:101B1000FFF708FD002817D128E0FFF7BFFA801B68
:101B20000228A1D820688005F7D5606807214903FD
:101B30008843296A084360606068297F0002000AC0
:101B400009060843606011E0E1E02168FF200130F0
:101B500081432160FFF7A2FA064604E0FFF79EFAF0
:101B6000801B022872D820688005F7D428786E4E32
:101B7000000724D568690028306910D00121084386
:101B80003061FFF78BFA009005E0FFF787FA0099C4
:101B9000401A02285AD830698007F6D50FE040086D
:101BA00040003061FFF77AFA009005E0FFF776FA1F
:101BB0000099401A022849D830698007F6D428785D
:101BC000400765D500200290A06BC00006D4A06B32
:101BD000012109070843A0630120029053480168CE
:101BE000C90511D40168821511430160FFF756FA47
:101BF000009005E0FFF752FA0099401A642825D8B2
:101C00004A480068C005F5D5FF20AA680130824225
:101C100003D131690143316111E001218902002AB8
:101C200007D005231B029A4203D132690A4332616D
:101C3000EFE7326982433261306988433061A868D6
:101C400000280FD0FFF72AFA009007E05EE0FFF7C8
:101C500025FA0099411A3648814257D830698005E3
:101C6000F5D50DE0FFF71AFA009006E0FFF716FA37
:101C70000099411A2E48814248D830698005F5D430
:101C80000298002804D0A06B012109078843A063B3
:101C9000686A002865D00C2F4CD001263606022831
:101CA000206805D0B0432060FFF7F8F905462FE023
:101CB000B0432060FFF7F2F9074604E0FFF7EEF9C2
:101CC000C01B022822D820688001F7D4E96AA86ADC
:101CD000E2680843296BFD231B049A431143084320
:101CE000E060206830432060FFF7D8F9054604E043
:101CF000FFF7D4F9401B022808D820688001F7D5E7
:101D00002FE0FFF7CBF9401B022801D90320FEBDCD
:101D100020688001F5D424E00010024034B50008AA
:101D20001800002010000020401002400070004009
:101D3000881300000128EAD0E06801210904AA6A9A
:101D4000014091420BD10F218904EA6A014091427E
:101D500005D1032189050840296B884201D0012063
:101D6000FEBD0020FEBD0000094910B5401E88429E
:101D700001D9012010BD074C60610321081F00F04C
:101D8000A9FD0020A06107202061002010BD0000F7
:101D9000FFFFFF0000E000E010B5040003D0E06F9B
:101DA000002802D007E0012010BD00217820015555
:101DB000204600F027F82420E067206801684908E1
:101DC00049000160204600F0E1FB0128ECD0606A88
:101DD000002802D0204600F0E2FA2068416809227B
:101DE000D20291434160206881682A229143816038
:101DF00020680168012211430160204600F034FB95
:101E000010BD000010B586B0044614216846FEF7E8
:101E100051FA1149206888421BD11048816B012278
:101E2000520411438163C16A01221143C162C06A35
:101E30006946104005900C2000900220019000207F
:101E40000290032003900420049005200007FFF770
:101E500047F806B010BD00000044004000100240EA
:101E6000FFB50446C06F83B017460D46202802D048
:101E7000022007B0F0BD002D0BD0002F09D00120AB
:101E8000A1680003814206D12069002803D1E80738
:101E900001D00120EDE70021842001512120E067DD
:101EA000FFF7FCF826464036019037827782012002
:101EB000A1680003814202D12069002802D02F4688
:101EC000002511E000270FE000228021204600F0CD
:101ED0004BFC002815D1002F17D021683878886274
:101EE0007F1C708A401E7082708A019B00280698B1
:101EF0000090E9D100224021204600F035FC002866
:101F00000AD02020E0670320B3E728882168C005B5
:101F1000C00D8862AD1CE4E72020E0670020A8E740
:101F2000FEE701688A69D243920701D400228A62DF
:101F300000688169C943C90703D08169012211433F
:101F400081617047F7B50446006882B08169002658
:101F50002746C906403735460092002945DA102148
:101F6000C16132E00398401C2FD0FFF797F8009929
:101F7000411A0398814201D8002826D1206841687F
:101F8000012292031140BA788369DB431B0417D402
:101F900001239B03994213D0202A11D04168194391
:101FA0004160FFF77BF800900AE0FFF777F8014601
:101FB0000098081A192803D920200543012604E0B7
:101FC00020688069C0438006EFD420688069C043E0
:101FD000800602D5002EC5D004E0002E02D1216873
:101FE0002020C86104200543012621688869C205B4
:101FF00004D5012215431202CA610126410508D504
:1020000008210D43CA012168CA610126800502D456
:102010000AE0800506D50220054321680002C86158
:10202000012601E0002E0FD02046FFF77AFF20683E
:102030004168074A11404160606C28436064202079
:1020400078700020B8703870304605B0F0BD0000E0
:1020500000E800FEF8B50446164615481D46DAB2FB
:102060000090079F0023204600F054F83A4620468F
:10207000069900F0C1F8002818D12846F5B20128C9
:1020800009D02168300A88623A462046069900F055
:10209000B3F800280AD12068856200970022402109
:1020A0002046069B00F04CF8002800D00120F8BD27
:1020B00000200080F8B50446164615481D46DAB2E1
:1020C000C3020090079F204600F024F83A462046BD
:1020D000069900F091F8002818D12846F5B2012899
:1020E00009D02168300A88623A462046069900F0F5
:1020F00083F800280AD12068856200970022802199
:102100002046069B00F01CF8002800D00120F8BDF6
:1021100000200080890510B5890D12041143029C2E
:10212000194302682143490050684908630D034C74
:10213000234398430843506010BD0000FF63FF0332
:10214000F8B51E4617460D4604461EE0701C1CD00E
:10215000FEF7A4FF0699401AB04201D8002E14D110
:1021600020688169284688430DD00020B8420CD1F0
:10217000616C202001436164403460700020A070D5
:1021800020700120F8BD0120F0E720688169284611
:10219000884304D00020B842D8D00020F8BD0120E8
:1021A000F9E770B516460D4604461EE0324629464C
:1021B0002046FFF7C7FE002801D0012070BDFEF7C2
:1021C0006DFF801BA84201D8002D0ED120688069C8
:1021D000C043800609D5616C20200143616440340E
:1021E00060700020A0702070E7E720688069C0431D
:1021F0008006DBD4002070BD70B516460D4604463F
:1022000020E0324629462046FFF79CFE002801D0F8
:10221000012070BD681C15D0FEF740FF801BA8424E
:1022200001D8002D0ED120688069C043800709D5F0
:10223000616C202001436164403460700020A07014
:102240002070E5E720688069C0438007D9D400206A
:1022500070BD000008B50448C16A01221143C16283
:10226000C06A1040009008BD0010024010B513482D
:1022700011490160124941600021816001614161A1
:1022800081610122C161C2600162FEF757FF00282F
:1022900001D0FEF711FE00210848FEF705FF0028D7
:1022A00001D0FEF709FE00210448FEF722FF0028B6
:1022B00001D0FEF701FE10BD00540040FC0C0020D0
:1022C0008266500010B50C480A490160E1214902BC
:1022D000416000218160C16001618161C1610C22A6
:1022E000016242614162FFF757FD002801D0FEF70D
:1022F000E3FD10BD00440040500D0020FEE7704794
:10230000704710B5FFF7F2F810BD000010B598B097
:1023100034216846FDF7CEFF14210DA8FDF7CAFF52
:10232000182112A8FDF7C6FF1B4801680322D2023C
:102330009143C214891801600121022003911021E8
:10234000009004910990002440050C900A940B948D
:102350006846FFF7EFFA002801D072B6FEE70F20BB
:102360000D9003200E900F941094012111940DA84C
:10237000FFF7B6F9002801D072B6FEE70A201290E6
:102380001494169412A8FFF7FFF8002801D072B633
:10239000FEE718B010BD000000700040704710B597
:1023A000818CC90707D001684A6801235B049A43FE
:1023B000836A1A434A60818C890707D501684A6895
:1023C00001231B049A43C36A1A434A60818C49075C
:1023D00007D501684A6801239B049A43036B1A439B
:1023E0004A60818C090707D501684A680123DB032D
:1023F0009A43436B1A434A60818CC90607D5026829
:10240000916801231B039943836B19439160818C6D
:10241000890607D501688A6801235B039A43C36B69
:102420001A438A60818C490612D503685A680121D3
:102430000905046C8A4322435A60026C8A4207D120
:102440000268516803235B059943436C194351604B
:10245000818C090607D501684A680123DB04806C7A
:102460009A4302434A6010BDFEB5074600258037F7
:1024700004467D60FEF712FE019020680068264643
:1024800000076036002819DA274800900121002251
:1024900049052046019B00F067F900280ED0EFF3B4
:1024A0001080012181F3108821680A6880239A43F3
:1024B0000A6080F310882020E06729E02068006827
:1024C000400728D5184800900121002289052046A0
:1024D000019B00F049F900281DD0EFF31080012185
:1024E00081F3108821680A68FF2321339A430A6028
:1024F00080F31088EFF31080012181F310882168A8
:102500008A68520852008A6080F310882020386060
:1025100035760320FEBD2020E067386025666566BD
:1025200035760020FEBD0000FFFFFF0110B5EFF380
:102530001081012282F3108802681368FF2421347D
:10254000A343136081F31088EFF31081012282F31B
:102550001088026893685B085B00936081F31088C1
:10256000016E01290BD1EFF31081012282F3108853
:10257000026813681024A343136081F3108820229B
:1025800080210A5000210166816610BDF8B504461D
:10259000016880682369E66918436369002533434D
:1025A00018436A4A0B686A4E334003430B60206845
:1025B000416803231B039943E36819434160216881
:1025C000A069914201D0236A18438B680B2636021A
:1025D000B34303438B605F4923685F488B420AD152
:1025E000C0680C21084027D0042829D0082825D00D
:1025F0000C2811D10EE093420ED1C1680320800255
:10260000014019D001208002091A19D0091A15D0E9
:10261000814201D1082700E010274F494F48403937
:102620008600934234D1002F0CD0022F0DD0042FFE
:1026300010D0082F7ED128E00027EEE70227ECE734
:102640000427EAE7FFF71AF906E00968C90605D486
:10265000304603E0FFF732F9002872D0626851007B
:102660005118814266D81103814263D3010E0602DC
:102670005008002330185941FDF770FD032109026D
:10268000374A411A91425AD954E00120C003E5E784
:102690000122E369D20393422AD13B0000F0FBF808
:1026A0000906090C4A114A4A4A264A00FFF7E6F889
:1026B00009E0FFF7F3F806E00968C90605D43046DB
:1026C00003E0FFF7FBF800283BD0616840004A08B0
:1026D0008018FDF72DFD0146224A1039914229D874
:1026E000511C01400007400F084328E01046ECE76A
:1026F0003B0000F0D0F80906090C1F111F1F1F2115
:102700001F00FFF7BBF809E0FFF7C8F806E009680B
:10271000C90605D4304603E0FFF7D0F8002810D0F2
:1027200061684A081018FDF703FD02460D49103A8A
:102730008A4203D9012504E01046F1E780B22168FE
:10274000C8600020A066E0662846F8BD004800404A
:10275000F369FFEF004400404010024000093D00D3
:10276000FFFC0F00EFFF0000FFB5064681B080368A
:102770000546044660350A9F2EE0781C2CD0FEF7F3
:102780008DFC0499401AB84214D8002F12D020684A
:102790000168490720D5C169C94309070CD4082736
:1027A00007622046FFF7C2FE7760002028760120EE
:1027B00005B0F0BD0320FBE7C069C04300050BD4A2
:1027C00001202168C00208622046FFF7AFFE2020EA
:1027D000706000202876EDE72068C1690298884380
:1027E00005D0002103988142C7D00020E0E70121F5
:1027F000F8E700000FB410B503A9044B044A02988F
:1028000000F046FA10BC08BC04B01847459D00080B
:102810002C00002037B514460846064B6A46214670
:1028200000F036FA04466946002000F0CFFD20464D
:102830003EBD0000CD3300082021020C01D0102144
:102840001046020A01D010460839020901D010468C
:10285000091F820801D01046891E420801D0881E37
:102860007047081A7047F8B5040C8BB2264682B23E
:102870005E430D0C1046370C584336048019002176
:10288000794116466E43370C360480197941264645
:102890006E438919F8BD30B47446641E2578641CF3
:1028A000AB4200D21D46635D5B00E31830BC1847A5
:1028B0004100080200D004200A0E01D0012210437A
:1028C000090EFF2901D102210843012800D105206A
:1028D000704700008307FF22DB0E9A408907090E2C
:1028E0009940002808DB830809489B001B181868DA
:1028F00090430843186070470007000F08388308AA
:1029000004489B001B18D86990430843D86170475E
:1029100000E400E000ED00E0002210B51346104690
:102920001146FDF7D5FE10BD10B57F200021C00572
:10293000FDF768FD10BD10B50121FDF7A1FD10BD2B
:1029400010B5FDF7C9FC10BD10B500210846FDF714
:1029500059FD10BD10B5072061210007FDF790FD5E
:1029600010BD5E2110B5C9430807FDF789FD10BDF4
:10297000F0B50E4614465100FF22120687B0914270
:1029800003D31116316007B0F0BD01202502C00746
:102990000543E00D7838C206D20E2020871A600069
:1029A000000E7838401181004D4878440B189C4641
:1029B0004358002A14D06046406893400146F840CE
:1029C00003436046806891408646F8400143039186
:1029D00060467146C0689140F84001430F4603E0ED
:1029E000604641680391876818462946FFF73BFF18
:1029F0000291049029460398FFF735FF0391069052
:102A000038462946FFF72FFF0F460698029B3D18D0
:102A1000049A0399BD4201D2012700E000278818DB
:102A2000C019002F02D0884202D903E0884201D2A7
:102A3000012100E0002159180A4620329709C20CF2
:102A40008906520340033760114301900846FDF7A1
:102A5000CDFE02900198FDF7D4FE1221C943FDF787
:102A60000FFD01902846FDF7CCFE2521C943FDF757
:102A700007FD009001990298FDF72EFC0099FDF7E3
:102A80002BFC0121C9024018050B2D032846029991
:102A9000FDF773FC0199FDF770FC0099FDF771FCDF
:102AA0001049FDF772FC00900F492846FDF76DFCB8
:102AB0000099FDF711FC00900C492846FDF765FCD4
:102AC0000099FDF709FC002C00DB5CE701210907F8
:102AD000C91B31600121C907484007B0F0BD0000A3
:102AE000469A0000DB0FC92F22AAFD290000C92F3A
:102AF00002E008C8121F08C1002AFAD170477047C7
:102B0000002001E001C1121F002AFBD17047000024
:102B1000014908607047000030000020F0B51FB484
:102B200086B00998089A030D0021024314D0514839
:102B3000514A1818504305141198012810981AD0BA
:102B4000281A401C00264D4F4D49009601910490D3
:102B5000002812DA444211E01198012449A3012807
:102B600001D11098C1430698119A84600360C26035
:102B700041600BB0F0BD4042E4E70446210500206F
:102B80003F4A001C51410391029012E0E00707D038
:102B900032463B4601990098FDF732FD01910090C5
:102BA00032463B4610461946FDF72AFD06460F46BB
:102BB0006410002CEAD10498039B0028029A09991A
:102BC000089806DAFDF71CFD019B009AFDF718FD39
:102BD00005E0FDF77DFD019B009AFDF779FD0446B8
:102BE0000E460022284BFDF70DFF03D80020C043FE
:102BF000014607E00022254B20463146FDF74CFCFC
:102C0000FEF7E4F8102409E0002C0ADB0A22002376
:102C1000FDF7A4FA079B30321A55641E02460A4398
:102C2000F2D11122641C079B121B1C19119B012B52
:102C300003D0012308430ED10AE0084304D0112039
:102C400010900020119077E71098151A6D1E0BE078
:102C50001098824202DD00236D1C03E0824201DAFB
:102C600000236D1E002BEED0069811998260C16082
:102C700030C07EE701FCFFFF104D00000000144053
:102C80000000F03F300000000000F0430000E03F93
:102C9000FFB597B0064600251BE2252876D1002413
:102CA0002746F749049400E00443761C327801205B
:102CB000203A90400842F7D130782A280ED00222DC
:102CC000307801463039092916D804990A23594326
:102CD000303940181443761C0490F1E7189802C864
:102CE00004911890002904DA01204003044348426B
:102CF000049002200443761C30782E2814D104203E
:102D000004437078761C2A2809D11898761C80C84C
:102D1000189009E00A214F43303FC719761C3078DC
:102D2000014630390929F5D930786C2810D006DCF5
:102D30004C281AD068280ED06A2817D104E07428CD
:102D400013D07A2812D110E00120400504430CE092
:102D50000121090501E0032109050C437178814235
:102D600003D1012000052418761C761C30786628D3
:102D70000BD013DC58287DD009DC00287BD04528F7
:102D8000F6D04628F4D047281AD1A9E118E06328E4
:102D900035D0642870D0652812D1A1E170286CD09C
:102DA00008DC6728F1D069287DD06E280DD06F2807
:102DB00006D1BCE073282ED0752873D0782859D05E
:102DC0001A9A199990476D1C82E16002400F0228FF
:102DD00009D003280DD00428189801680DD00D6083
:102DE000001D189074E11898EA1701680D604A6098
:102DF000F6E7189801680D80F2E70D70F0E7189873
:102E00006A4601781172001D18900020507202A8C5
:102E10000090012005E0189802C818900020009149
:102E2000C04361070ED5002101E00199491C0191C1
:102E3000B94213DA8142F8DB019A0099895C0029D2
:102E4000F3D10BE0002101E00199491C019181427D
:102E5000FADB019A0099895C0029F5D1019904985F
:102E60001A9B471A21463846199A00F099FA4019D8
:102E7000019903E051E030E115E050E0451807E02A
:102E8000009800990078491C00911A9A1999904766
:102E90000198401E0190401CF2D1214638461A9BF1
:102EA000199A12E137E00A20002100900191600296
:102EB000410F022907D0189A01CA1892C2179446E6
:102EC000032908D00AE01898C01DC108C90005C927
:102ED0001891944607E000B2C2179446042902D123
:102EE00040B2C1178C4600226146944506DA0A4674
:102EF0000021404291418C462D2102E0210504D55C
:102F00002B216A461173012103E0E10701D0202142
:102F1000F7E7029156E00A200AE0102008E01020AE
:102F200000900021042004430191082703E00820B9
:102F30000021019100906002410F022907D0189AE8
:102F400001CA189200229446032908D008E0189874
:102F5000C01DC108C90005C91891944603E080B29C
:102F6000042900D1C0B20021029121072AD531786D
:102F70000D91702906D0009A1021019B4A401A43F6
:102F800005D00EE040216A461173012108E0614638
:102F9000014306D030216A4611730D995173022105
:102FA0000291009A0821019B4A401A430AD16146C6
:102FB000014301D1610705D530216A461173012112
:102FC0007F1E02913178582904D02EA10E910DA9AF
:102FD0000D910DE030A1F9E76146019B009AFDF7E4
:102FE000BDF80E9B8C469B5C0D9A521E0D92137081
:102FF00061460143F0D10D9805A9081A20300190CF
:10300000600703D501200004844300E001270198F4
:10301000874201DD381A00E0002001990090411834
:10302000029809180498401A0490E00306D4214637
:103030001A9B199A049800F0B3F94519002706E085
:1030400003A81A9AC05D199990476D1C7F1C0298BD
:103050008742F5DBE0030CD521461A9B199A0498A8
:1030600000F09EF9451904E01A9A3020199990470A
:103070006D1C0099481E00900029F5DC1FE000003F
:10308000092801003031323334353637383961623E
:103090006364656600000000303132333435363702
:1030A0003839414243444546000000000D980D99CF
:1030B0000078491C0D911A9A199990476D1C019935
:1030C000481E01900029F1DC4DE100F059F9451945
:1030D000761C3078002800D0DFE528461BB0F0BD14
:1030E000600700D406271898C01DC108C9004868A9
:1030F0000A680831C30FDB071891190001D09CA1A1
:1031000008E0210501D59BA104E0E10701D09AA1C7
:1031100000E09AA14300109130785B0865280CD03C
:1031200006DC452809D046281DD0472841D141E07A
:10313000662818D067283CD13CE00021112F01DB24
:10314000112000E0781C0191009008A911A8FFF758
:10315000E5FC139905910021119A15927F1C129894
:103160000197009150E00120C007039001200190D9
:1031700008A9009711A8FFF7D1FC139A149905929A
:103180000022119B009212981593059A0192002932
:1031900001D0104602E0791C40180190381A01D580
:1031A000019804E04042401E0090781C0190C01B32
:1031B000029043E0012F00DA01270021112F01DDE9
:1031C000112000E038460191009008A911A8FFF7EE
:1031D000A5FC13990591119A00211298159200915E
:1031E000019721070CD40599B94201DB019900E050
:1031F0000191012904DD159A491E515C302906D040
:10320000B84201DA011D05DA0121029115E00199A8
:10321000491EEDE7002805DC00994118009101994D
:10322000091A03E0019A411C914200DD01910099C5
:10323000401A401C02900120C0070390200706D4CA
:1032400002990198814202DB0020C04302900020D5
:103250006946C87707AF012103980337C907884239
:1032600024D0022011902B201290039800280CDA11
:10327000404203902D20129007E00A210398FCF7AA
:1032800057FF30317F1E039039701199481E1190FD
:103290000029F2DC03980028EFD1791E12980870FB
:1032A0003078202108404530BF1E387006A8C01B6A
:1032B000C01D039010980078002800D001200199CB
:1032C00041180298C0170918039809180498401A61
:1032D000401E0490E00306D421461A9B199A0498D4
:1032E00000F05EF8451910980078002803D01A9A6B
:1032F000199990476D1CE00324D521461A9B199A11
:10330000049800F04DF845191CE00098002807DBF0
:1033100000990598884203DD1598405C199901E0F1
:10332000199930201A9A904700986D1C401C009003
:103330000298401E0290002804D11A9A2E20199952
:1033400090476D1C0199481E01900029DDDC05E0C5
:1033500038781A9A7F1C199990476D1C0399481E5A
:1033600003900029F4DC21461A9B199A0498ACE6D4
:103370002D0000002B0000002000000000000000D5
:10338000F8B5044600251E461746880404D405E017
:1033900039462020B0476D1C641EF9D52846F8BD7B
:1033A000FFB50446002581B01E46C80301D530276D
:1033B00000E02027880404D505E038460399B0478B
:1033C0006D1C641EF9D5284605B0F0BD0A68531C73
:1033D0000B60107070470000014A89005050704720
:1033E00000000020FFB50020F5B00F4669460871C7
:1033F000044605461E46582102A8FCF75BFF002F35
:103400007ED017206946087101A800903F49B0009E
:10341000085818AB3A46759905F0F2FA054665E08A
:10342000270118A83818417B0B00FFF734FA1F5DFD
:103430003B4144475D2C292F325D5D50534A4D5D21
:103440005D5D5D5D5611171D233511171D235D0050
:1034500081680491807B08A9487440E081680591E7
:10346000807B08A988743AE081680691807B08A96E
:10347000C87434E081680791807B08A908752EE044
:10348000806808902BE08068099028E080680A90A6
:1034900025E080680B9022E08068FDF70CFA08A90F
:1034A00008741CE081680E91807B08A9087716E0FB
:1034B0008068129013E08068159010E08068169084
:1034C0000DE0806810900AE08068119007E0806845
:1034D000139004E08068149001E08068179018A8A9
:1034E000C01903C803910290641CE4B268460079D5
:1034F000844295D308A84675294602A8779A00E029
:1035000000E09047284679B0F0BD000000000020A0
:1035100010B5A4B0082210AB1A7307246B461C72B6
:10352000062401901C7403901A76092208AB0590BA
:103530001A70162407901C72172409901C74182402
:103540000B901C76192410AB0D901C701A240F9050
:103550001C72119013A800908800044914AB0858FD
:1035600001A905F0C0FE24B010BD0000000000203D
:103570001CB504460B4671200522694600F00CF983
:103580000146002C02D0002903D01FE00021C943CE
:103590001CE0684640784007400F2070684600797C
:1035A000C006400FE0706846C07840096070684609
:1035B000C078C006400FA07068460078C00901D0EE
:1035C000082002E0684600794009207108461CBDC9
:1035D000FFB5A1B0044600251E462F4648210FA87E
:1035E000FCF768FE0FA8029015A803901BA8049092
:1035F000304606F01FFF00287AD12298002877D0A5
:10360000012C0BD0022C16D0032C14D001242398AB
:1036100000286DD00770204625B0F0BD0146324627
:10362000002007F0E7FB0400F1D1229800780006A3
:103630005BD50127EBE7314602A807F00FFB0446F4
:103640000BE0A90002A841580978090601D57F1CA2
:10365000FFB26D1CEDB2032D02D2002CF1D042E07E
:1036600000252BE0681CC6B20D9021E002AAA8003C
:103670001358314698781B788646B00010581B06C0
:10368000844680780ED563461B781B060ED573469C
:10369000C31A981C022801D3022B07DD284607F025
:1036A0000FFF03E0604600780006F7D4761CF6B200
:1036B000032EDBD30D98C5B2022D02D2002CD1D03F
:1036C00011E0002502AE0CE0A80031581820229A23
:1036D000684380181822FCF7D4FD6D1CEDB2032D51
:1036E00001D2002CF0D0002F91D102248FE7FFE708
:1036F0000024E4438FE70000FEB50C46064619A1FE
:1037000003C90025174601910090002C28D00521FF
:10371000601C00F031FA002822D13A460521A01C95
:1037200000F02AFA00281BD13A460521204600F075
:1037300023FA002814D161786846A278415C825C43
:1037400051182278805C40180849484307493739A6
:10375000401807494518022E02D07D20C0002D18C0
:103760002846FEBD0001020408100000AB0700005F
:103770005109000038B504000BD00B460122694600
:10378000742000F009F8694609788907890F2170CB
:1037900038BD0020C04338BDFFB5064681B01C4689
:1037A000184606F047FE05001AD10298002817D0E7
:1037B000207B002807D12146304607F065FD050033
:1037C00001D180200643276C63683046039A029932
:1037D000B84740342073002804D00125ED4301E0B0
:1037E0000025ED43284605B0F0BD38B5044600F08D
:1037F00097F9234601221946D020FFF7CDFF002874
:1038000004D12078612802D00220C04338BD0020B6
:103810006946087023460122F020FFF7BDFF00280B
:10382000F4D1684601782046A16006F0CFFA38BD91
:10383000F3B5044647A103C989B00025009504915A
:10384000039001262F46019502A80A99FFF792FFDF
:10385000002802D10A9900F0D3F8002C02D00028E9
:1038600003D06BE00020C04368E06846007B05227F
:1038700069460A9BFFF790FF0A9940314F73002871
:103880005CD10721E01C0A9A00F076F9002855D196
:103890000521601C0A9A00F06FF900284ED105211D
:1038A000A01C0A9A00F068F9002847D1052120469B
:1038B0000A9A00F061F9002840D10821201D0A9AD7
:1038C00000F05AF9002839D168460179E078E323FD
:1038D00040071940C00E014368460171C078C20616
:1038E0006078D20E400102436846C270A0781A4048
:1038F0004007C00E02436846C2704078C208207874
:10390000D2004007400F02436846427020790828E1
:1039100001D005460026C906C90E68010143684664
:103920000171007805224106490EF0010143684605
:103930000170694603A80A9B00F0A2F869460A7A5A
:10394000002A05D0002803D110460A9900F058F843
:103950000BB0F0BD7172737475000000FEB50746C0
:103960000D46002069460871044624A000681646EA
:103970000290002D3ED01146002000F041F80028B2
:103980002FD1334601AA3946284607F0C1FB00284B
:1039900027D13346022269467020FFF7FDFE00283A
:1039A0001FD1287801281DD0012168460278F72010
:1039B0000240C8000243684602704078334601095D
:1039C0006846007909010007000F0143CF2001403C
:1039D00020010143684641700222694602A800F0B6
:1039E0004FF8FEBDB0680021012801D00124DCE7BA
:1039F0000224DAE70020C043FEBD00007071000021
:103A0000FEB50E4607460025742069460871334608
:103A1000012269467420FFF7BFFE040008D0002D84
:103A200001D0002CF3D0002F25D0002C14D022E0A0
:103A3000684600788507AD0FF5D08008800069469C
:103A400008703346012201A800F01AF80446B26C4F
:103A50000A4871689047E4E769460878B907800822
:103A60008000890F0843694608703346012201A887
:103A700000F006F804462046FEBD000010270000B6
:103A8000FFB585B01E46174614216846FCF712FCA8
:103A9000304606F0CFFC05003CD10598002839D00F
:103AA0000698002836D0781E092830D800240FE068
:103AB000307B0028059810D0015D62006846815473
:103AC00006986200015D68461018641C4170A4B23B
:103AD000BC42EDD3002D0AD01EE0005D314607F058
:103AE000D3FB05460598005D4106490EE5E700A9B0
:103AF0007A0068460131746C0078521E7368A047E2
:103B000040363073002807D00125ED4304E003253B
:103B1000ED4301E00025ED43284609B0F0BD00006B
:103B20007CB50546E02168460170B6210171284642
:103B300006F080FC04001AD1287B002804D1284616
:103B400006F0CEF9040012D12B46012201A96846E5
:103B5000FFF796FF04000AD1AA6C064869689047EF
:103B6000287B002803D1284606F0BAF904462046EF
:103B70007CBD00001027000070B505460E461446B7
:103B8000104606F057FC002D01D0002802D000207E
:103B9000C04370BD2978B142FBD92E704034617B9F
:103BA00001221143617370BDF0B515688446002091
:103BB000069CED188D4202D92820C043F0BDA342D7
:103BC00002D92520C043F0BD002106E0059C1768FE
:103BD000665C644664183E55491C9942F6DB1560E4
:103BE000F0BD0000FEB505464F20400128180090AA
:103BF000007D00285DD0284601F00AF90024304FEE
:103C000001263046A04038420CD02E48005D4000CE
:103C100041191320C0010818C28C601CC1B228468B
:103C200001F002FA641C1E2CEBDB284601F06CF854
:103C3000254800242818019001202149A04008426D
:103C400015D02048015D0198085C00280FD000269F
:103C500067001E48C15F0120B040014204D0701CC3
:103C6000C1B2284601F0ACF9761C0B2EF1DB641CC6
:103C70001E2CE1DB00980026067513481721401C16
:103C80002818FCF717FB009C11496674C978232299
:103C9000490049199201002089182726898E034678
:103CA000B601420052199219D28F8A4202D1401CA9
:103CB0006074FEBD401C002BFBD10428F1DBFEBD6F
:103CC000EF79F23FACBE0008D5090000CABE00087B
:103CD00080BF0008F8B5144605460020069A187003
:103CE0000E461448232180192038C07F89014000E6
:103CF00040194018818E10481F461180814218D00B
:103D0000272080012818C08D07F03DF9002805D034
:103D10004F2040012818407D00280AD0012038702B
:103D20000246761EA168B2401143A160203460773C
:103D3000A077F8BD80BF0008FFFF0000F8B58446FB
:103D40000C4600254F22520161468B182E4628460C
:103D500001221146304F814039420DD02F49095C74
:103D6000490009194039CF8FE121C900791A0CD0D7
:103D70002B4FF94200D00126401C1E28E9DB187E9B
:103D8000002804D0002E3BD143E01A76F4E72D2121
:103D9000604689014018038B00201E4601211E4AFF
:103DA0008140114209D01D49095C4A1E4900891E03
:103DB000615AB14201D25100665A401C1E28EDDB07
:103DC0001848864225D23146184607F0DCF800280C
:103DD00016D10027009701200F49B840084212D0A1
:103DE0000E48C05D411E4000801E225A0D4882428E
:103DF00009D04800205A314607F0C5F8002802D003
:103E00000F25ED4305E000987F1C002801D11E2FEF
:103E1000E1DB2846F8BD0000EF79F23FACBE0008B8
:103E20000907FFFFFFFF00007FB504462048009010
:103E300068460078207068464078607068468078F0
:103E4000A0706846C078E0700D46FF20BE300021AB
:103E500002910190082201A9201DFCF712FA28689E
:103E600003AA1038009068460078207368464078AE
:103E7000607368468078A0736846C078E073204617
:103E8000296804F081FD6846017B2A68201D1154D1
:103E90006846417B2A68601D11542A680020A11DD4
:103EA00050542968E41D08552868083028607FBDF3
:103EB00002000502F0B5002414600A4C002530C34E
:103EC0002C46083B0BE025012E18777B182F05D1D7
:103ED000B6684519166060CD60C3083B641C8C420F
:103EE000F1DBF0BDFFFF00007FB50D46012401AB03
:103EF00002AA694600F07EFE68460079002806D0D6
:103F000028460099FCF7AEFD00D000E000242046D2
:103F100004B070BDF8B59C46069D0023079F2B702A
:103F20003B700C686B46065D1E70431CE45C6B4680
:103F30005C701C88089B64451C6003D91F20C0432B
:103F40002870F8BD002304E00D68C618AD5DD55497
:103F50005B1C2546A342F7DB90783870086840194F
:103F60000860F8BD70B50E4B132459182039CB7F6B
:103F7000E401591E5B009B1E1B181B191D8D01239C
:103F8000954204D027264518B601AD19AB754900F6
:103F9000091809190A854F2149014018037570BD98
:103FA000ACBE0008F0B504461720C0018BB0201845
:103FB00001210190C1710198002202724F2040013D
:103FC00002222018C276017705214177A1481822E4
:103FD0009F492018FCF755F90020052252024300A2
:103FE0001B199B189C49401CD9828A28F7DB0521A4
:103FF000490262189948D082292080016421201842
:104000008180FF212D3141861521C901944B611812
:104010000B84924D15836425C580FF252D3585863B
:104020004B848E4D558364250581FF252D35C5862E
:104030008B848A4D958364254581FF252D35058721
:10404000CB84864D15866425C583FF252D358D814E
:104050004B87824DD58464258582FF252D354D8083
:104060000B867E4D15856425C582FF252D358D80F7
:104070004B866425D583794D8581FF252D35458770
:10408000E125ED002B26B601A6190D85B446F38275
:104090000B263602A6199F10B646B78064261684F2
:1040A0006E4EC681FF262D3686874D856646338344
:1040B0007646F78064265684684E0682FF262D36A3
:1040C000C6878D856646738376463781634E9684B0
:1040D00064264682FF262D360E80CD856646B38344
:1040E00055875E4ED68564268683FF262D364E8103
:1040F0000B8764265685594E0683FF262D36CE80C3
:104100008B866646778464269685544E4683FF26C2
:104110002D360E81CB866646B78455869586D58624
:1041200015879587D58705804580494995200001E9
:10413000402218312018FCF7A4F808A80090019834
:1041400006ABC07904AA02A904F0D8FC0920000239
:1041500020180499816506994165089901650299BD
:10416000002646668666C666C16505998167079919
:104170004167099901670399C1671320E906C001E6
:104180002018416081603749C160334A00214B00EB
:104190001D190B231B02EB18491C5A851729F6DB46
:1041A0002D239B012D4DE1180D8300258D768574FF
:1041B0000525CD760A250D770021254B4D00583376
:1041C0005E562D232F199B01FB18DE83204E491CC0
:1041D0006236755B5D860A29EFDB019B0A219971C6
:1041E0000021052501826D024B001B195B19DB8A3A
:1041F000934203D0068AB34200D90382491C8A291C
:10420000F2DB0B2700253F02012630461649A84065
:1042100008420CD0681C04F063FB01461348405D63
:1042200040000019C019028D2046FFF79BFE6D1C4F
:104230001E2DEADB00202721890122185218401C7C
:1042400096751728F9DB2046FFF7CCFC0BB0F0BDC4
:10425000E4BD0008FE090000FFFF0000307500000B
:104260007017000000001041EF79F23FACBE00086B
:10427000F0B54F214901272400274118A401172632
:104280004F740219F601D785861937611723DB01B0
:10429000C3185F611326F6018619B7611323DB018A
:1042A000C318DF6113260023F60186191D46336209
:1042B0001323DB01C3185D620D4B538600220D4BA7
:1042C0001325ED01560036187619338586183619F0
:1042D000521CB775172AF5DB0F754F756620887568
:1042E0000F760F740120C8754F768F76F0BD0000F1
:1042F00030750000FFFF0000F0B513234F24DB01F1
:104300006401C31805199E7C0C462034964205D0E2
:10431000032A61D0002A5FD0022A5DD01F8EE126D9
:10432000F600B74214D18E6804273E43B4468E602F
:10433000324E2327767BBF0176003618F619B68EEB
:104340002F4FBE4204D0012766467F033E438E6056
:104350005F8EE126F600B74203D18E6801273E4307
:104360008E609F8EE126F600B74203D18E68022749
:104370003E438E60DF8EE126F600B74203D18E68A1
:1043800008273E438E602726B60180198789E126DB
:10439000F600B74204D101278E68FF053E438E60C8
:1043A0008788E126F600B7421AD0C788B74217D0EF
:1043B0000789B74214D04789B74211D0C789B7429D
:1043C0000ED0078AB7420BD0478AB74208D0808AFE
:1043D000B04205D0886807E000202874886006E0B5
:1043E000084E886830438860002801D0012060773B
:1043F000002068769A74A277F0BD000080BF0008A4
:10440000FFFF00000F008000F0B585B004460020DB
:104410000A9F1D460E463860182902D22420C04348
:1044200003E0964204D92520C043187005B0F0BDC2
:1044300020786946087060784870A0788870E078C5
:10444000C87025490098884204D0401C02D0212021
:10445000C043EAE70822211D01A8FBF712FFFF2253
:104460000198BE32029942400A4305D0C043084336
:1044700002D02220C0430EE0207B69460870607B9A
:104480004870A07B8870E07BC87000981830B042FC
:1044900003D02720C0432870C8E7314603AA083953
:1044A000204604F071FA6846017BA0192038027F8B
:1044B00091420AD16946497B427F914205D1817F71
:1044C000002902D1C07F002802D02320C043E2E7A8
:1044D000102038600020DEE702000502F8B504462F
:1044E00002F00EF92046FF30993002F06FFD2046B1
:1044F0002C3002F0CBFA2046483001F083FB2046F6
:10450000FF30313002F030FC2046FF300A21D1303C
:1045100002F0DCF92046FF30E93000F089FE00218E
:1045200001232046DB028D0000222D18ED18AA641D
:1045300015461646CA00072712183F02D7193D65CF
:1045400007252D025219491C56650829EBDB11215C
:104550000027C90141188C464F6439468A00131858
:104560000122D2029A189766CA000F260023121859
:10457000F60196191D4633610F23DB01D2185561F0
:104580004318232292019A18491C17721729E5DB58
:10459000604607664766204600F03AFC2046F8BDB4
:1045A00070B504461D4663201646C0430B00FEF757
:1045B00072F90C0C0D1C070C140C0C0C232B330C77
:1045C0002A463146204602F0A7F870BD20462A460A
:1045D0003146483001F090FB70BD2046FF302A463E
:1045E0003146993002F00EFD70BD20462A46314614
:1045F0002C3002F059FA70BD2046FF302A46314671
:10460000313002F0E7FB70BD2046FF302A463146CC
:10461000D13002F066F970BD2046FF302A4631469F
:10462000E93000F0BDFE70BDFFB50021ADB005461C
:104630001491229108462391830026AA401CD15050
:104640000628F9DB00200790179010A9259008751F
:10465000087620A908741121C90169180991461E1C
:10466000486677080521284600F008FB0121C902A9
:104670006C18002832D02E98FCF7C3F8616EFCF756
:10468000F1F92BD1072000022818866E07200002BE
:104690002818C76E24AB039325AA16A915A86B4644
:1046A00007C32846FF3032463B46993002F0D0FC23
:1046B00010A8007D00210191009032463B460C215C
:1046C000284600F047FC10A8007E002101910090D0
:1046D00032463B460D21284600F03CFC032128468B
:1046E00000F0CCFA002811D02E98FCF78AF8616E01
:1046F000FCF7B8F90AD123AA22A914A86B4607C36C
:104700002846E36C226D616D02F022F801212846F3
:1047100000F0B4FA00282BD02E98FCF772F8616EE6
:10472000FCF7A0F924D1E06D226E400017AB26A95A
:10473000000E00D00120039006930492059120A85A
:10474000017C10A8027E007D009001920291284613
:104750004830239B229A149901F08CFB0021179872
:104760000191009032463B461221284602F09CFE01
:104770000221284600F082FA002848D02E98FCF743
:1047800040F8616EFCF76EF941D11AA8019018A8A3
:10479000009020AB1EAA1CA902A80EC0284626AA7B
:1047A0002C30259B179902F09BF9199918980191C3
:1047B000009032463B460121284602F075FE1A98C9
:1047C0001B990191009032463B460221284602F097
:1047D0006BFE1D991C980191009032463B460321C7
:1047E000284602F061FE1F991E9801910090324602
:1047F0003B460421284602F057FE2199209801915A
:10480000009032463B461521284602F04DFE092114
:10481000284600F033FA002828D02E98FBF7F1FF45
:10482000616EFCF71FF921D1072000022818016EE4
:10483000072000022818426E059204914A235B5B10
:10484000A06D039068460EC02846FF3032463B46B6
:104850003130216D02F0FAFA0021009007900191A9
:104860000E212846059B049A02F01EFE0A212846C6
:1048700000F004FA002820D02E98FBF7C2FF616EEA
:10488000FCF7F0F819D1072000022818066E07205F
:1048900000022818476E2846FF30E36C216DD130A6
:1048A000079A02F03BF800211490019100903246E3
:1048B0003B460F21284602F0F7FD0B21284600F069
:1048C000DDF900287ED0072000022818866E072018
:1048D00000022818C76E0AA8059013AB12AA0EA9E9
:1048E00006A80EC0A16CE06C0190369B309A02A81D
:1048F0000EC0206D00902846FF30626E616DE93079
:104900002F9B00F0C1FE2F98401EC0B2FBF779FF2D
:10491000616EFCF7A7F855D1092000022818029013
:10492000418C8C4881420AD010A8017A0A980191E2
:10493000009032463B461621284602F0CFFF0298EF
:10494000818C844881420AD010A8017A0B98019189
:10495000009032463B461721284602F0BFFF0298DE
:10496000C18C7C4881420AD010A8017A0C98019130
:10497000009032463B461821284602F0AFFF0298CD
:10498000018D744881420AD010A8017A0D980191D6
:10499000009032463B461921284602F09FFF0298BC
:1049A000818D6C4881420AD010A9097B0E98019133
:1049B000009032463B461B21284602F08FFF0298AA
:1049C000C18D00E02DE0634881420AD010A9497BE7
:1049D0000F980191009032463B461C21284602F078
:1049E0007DFF0298018E5B4881420AD010A9897B25
:1049F00010980191009032463B461D21284602F056
:104A00006DFF0298418E534881420AD010A9C97B9C
:104A100011980191009032463B461E21284602F033
:104A20005DFF4D4E092770793F0240004019C019C3
:104A300081884848814213D00998406C40070FD5BF
:104A4000206D009000210720019100022818026EBD
:104A5000072000022818436E0621284602F024FD94
:104A6000B0793C4F400041190920000208188088A5
:104A7000B84213D00998406CC0070FD0A06C0090CA
:104A800000210720019100022818026D0720000272
:104A90002818436D0721284602F006FDF0794000F2
:104AA00041190920000208188088B84213D00998DB
:104AB000406C80070FD5E06C009000210720019129
:104AC00000022818826D072000022818C36D0821F3
:104AD000284602F0E9FC307A400041190920000222
:104AE00008188088B84213D00998406C00070FD589
:104AF000606D009000210720019100022818826E4D
:104B0000072000022818C36E0921284602F0CCFCB9
:104B1000707E400041190920000208188088B842C0
:104B200013D00998406C00020FD5606E00900021F0
:104B30000F200191C001281882680F20C001281899
:104B4000C3681A21284602F0AFFC09990020486486
:104B500031B0F0BDFFFF0000ACBE000870B51546D7
:104B60000A461C460646002004991300FDF793FEF2
:104B70000C0D0E1F070D160D0D0D2730390D0B46B0
:104B800022462946304601F02BFE70BD0B463046CA
:104B900022462946483001F0B6FB70BD30460B4630
:104BA000FF3022462946993002F0D6FA70BD0B46F6
:104BB0003046224629462C3002F068F870BD304657
:104BC0000B46FF3022462946313002F0B7F970BD5E
:104BD00030460B46FF3022462946D13001F0D8FE40
:104BE00070BD30460B46FF3022462946E93000F0C2
:104BF00077FE70BD10B50124E4020419646E0C60E8
:104C00000F21C9010F244118E40189680419E468DF
:104C100012C21121C9014018406C0002C00F187067
:104C200010BD0000F0B5144C491E645C0127A600BD
:104C3000361F3618FF02F619B66E1660E200651EC2
:104C4000083A0F241218E40114190F26F6019219DC
:104C5000246952691C605A60232342199B01D218AF
:104C6000137A059A13701122D20180180123026E63
:104C70008B409A430266F0BDACBE0008F8B54A1EF0
:104C8000012595401D4A0026154234D01C4A491E74
:104C9000525C2324531E5200921E1218A4011219B2
:104CA000128D184CA24226D0154C4A000C34A25E3C
:104CB0001124E4010419676EBA431CD1104A89001B
:104CC00024325158626C914315D15900081825219E
:104CD000890147187988491C8AB2092109024018BC
:104CE000818E1046FBF724FA7980002903D1606E8B
:104CF0000126284360663046F8BD00001707000013
:104D00005CBE0008FFFF0000F8B506460025012044
:104D10003A4B0024A84018426CD039482322405D09
:104D20009201411E4000801E80198C468018018D22
:104D3000344881425ED000210120304B8840184227
:104D400016D02F4F6B000C37FB5E034210D02C485F
:104D50002C4F405C431E4000801E80198018008D3F
:104D6000B84205D0A04203DD580080198018048D98
:104D7000491C0B29E0DB00200121234B8140194213
:104D800016D01F4FAB002437FB580B4210D01F49E1
:104D90001C4F095C4B1E4900891E89198918C98E50
:104DA000B94205D0A14203DD590089198918CC8E7A
:104DB000401C1828E0DB002C1CD060464000801905
:104DC00000908018078D21463846FBF7B1F901465F
:104DD0006143791A0904090C07D0E3076208DB0F65
:104DE000D2188A4201D8401C80B2092200991202CE
:104DF000891888866D1C0B2D89DBF8BD170700000C
:104E00005CBE0008FFFF00000F20E00080BF00082C
:104E1000F0B5252623250021B601AD010924240281
:104E20004B001B1801221F19BA869F1900227A8095
:104E30005B190B4A491C1A850729F1DB00214B003D
:104E40001B185B19491CDA860829F8DB00214B0086
:104E50001B181B19491CDA801729F8DBF0BD00006C
:104E6000FFFF000070B504461D4663201646C04390
:104E70000B00FDF710FD0C0C0D1C070C140C0C0C9A
:104E8000232B330C2A463146204601F0D2FC70BD5C
:104E900020462A463146483002F013FC70BD2046B9
:104EA000FF302A463146993002F0ACFC70BD2046F6
:104EB0002A4631462C3002F066FC70BD2046FF3099
:104EC0002A463146313002F065F870BD2046FF3089
:104ED0002A463146D13001F083FD70BD2046FF30B7
:104EE0002A463146E93000F005FE70BDF0B5184C99
:104EF000491E655C07276C1EED00083D2E1807252E
:104F00002D0275193F02F6192D6D766D55405E40E4
:104F1000354302D1069D002D18D0A6000127361872
:104F2000FF02F619059DB564E400072524182D023B
:104F300065192A6507221202A21853651122D201AF
:104F400080180123426C8B401A434264F0BD00007C
:104F500080BF0008F0B51FB44E1E184904468D5D91
:104F60000A986F1EFBF74DFC0146A800001F0122A6
:104F70000019D20280188166E80008380F23001952
:104F8000DB01C318029A03991A610F22D20180181B
:104F900041610B9805F0FCFFFBF78DFC2322E11922
:104FA0009201891808721120C00120180122016E97
:104FB000B2401143016605B0F0BD0000ACBE000870
:104FC0000A4610B51649531E0A2B09D81549232342
:104FD00089182039C97F9B0149000918C918C98C53
:104FE0001300FDF758FC0B090A1307090E090909FC
:104FF0000917090001F03AFC10BD483001F054FADD
:1050000010BDFF30993002F0FBF810BD2C3001F0DC
:105010007DFE10BDFF30D13001F0FEFC10BD000060
:10502000FFFF00005CBE0008F0B5244B491E5B5C2E
:1050300009245B001B1824021B199A804C000023D2
:10504000A44601273C461E4D9C402C4214D01D4DC9
:105050006646AD5F25420FD01B4C2326E55CB601AA
:105060006C1E6D00AD1E2D18AD192D8D954203D906
:1050700064002418A41922855B1C0B2BE2DB00239F
:105080008E002325AD013946104C9940214211D0A4
:105090000F4CA4590C420DD00E49CC5C611E64002B
:1050A000A41E24186419E48E944203D949000918F7
:1050B0004919CA865B1C182BE5DBF0BDACBE0008A5
:1050C00017070000CABE00085CBE00080F20E00001
:1050D00008BF000880BF000810B5084901620849F0
:1050E00041628162031D0021047F0A4603E08800BB
:1050F000C018491CC260A142F9DB10BD0AD7A33C0D
:105100000AD7233B7EB50C6800236D46C618A65D02
:10511000EE545B1C0C2BF9DB6D4619CD19C20868E7
:105120000C3008607EBD7EB51C680C34944202D9F8
:10513000521C1A607EBD15C86D4615C500206A4612
:10514000145C0E181D68401CAC550C28F8DB186860
:105150000C3018607EBD0322027600213F22120629
:1051600002604260C160016182604161704700007D
:10517000F8B505460C4608682C49FBF706F906F019
:10518000B7F80146FBF701F907460146FBF7FDF8C2
:105190003946FBF7A1F806F07AF93946FBF7EDF846
:1051A0000121FBF76DF928607F272068FF05B842D1
:1051B00000D12F601D496068FBF7E7F806F098F80A
:1051C0000146FBF7E2F806460146FBF7DEF83146FA
:1051D000FBF782F806F05BF93146FBF7CEF80121C8
:1051E000FBF74EF968606068B84200D16F600F4904
:1051F000A068FBF7CAF806F07BF80146FBF7C5F894
:1052000006460146FBF7C1F83146FBF765F806F0A4
:105210003EF93146FBF7B1F80121FBF731F9A860FF
:10522000A068B84200D1AF60F8BD0000DB0FC93FF5
:1052300070B504460B20207000216170A170E170F0
:105240000120207160710220A071084682001219AD
:10525000401C91600A28F9DB002082001219401CD2
:1052600011630A28F9DBA165E165216600207F2230
:10527000D205616683001B19401C9A668228F9DBFF
:10528000002083001B19FF33FF330233401C1A67D1
:105290006428F6DB002001239B0285002D19ED1800
:1052A000401C2A602828F8DB252040010A2320180A
:1052B000037043700423837000200923DB01850001
:1052C0002D19ED18401C69620D28F8DB00208500BF
:1052D0002D19ED18401CAA650D28F8DB05200002E9
:1052E0002018C160016141618161C1610162416257
:1052F0008162204600F0E6FB204670BDF0B58BB021
:1053000014460F46054610AA43CAFBF7E9FA4019AE
:10531000C07800280AD0012813D0022834D02822CF
:1053200039463046FAF7ADFF0BB0F0BD0024A500BA
:105330007959002004F096FC641C70510A2CF6DBAD
:10534000F2E7282239463046FAF79BFF0A940024F8
:1053500016E0A500032178598907FBF716F804F039
:1053600039FB7F21C905FAF7B7FF01460120800705
:10537000FBF748F87F21C905FAF7FFFF7051641C5D
:105380000A988442E5DBCFE7282239466846FAF7D7
:1053900078FF32462146684600F0FAFBC4E7000079
:1053A00070B586B00E46044602A904A8019100908B
:1053B000207803AB314601F053FF6846007B00289C
:1053C00062D10025681CC0B20300FDF764FA0F62C9
:1053D000090B0E15181F272F373941474D5362000F
:1053E000221D26E02246083201E02246303202A980
:1053F000304603F0BFFB44E0224658323DE02246EF
:10540000683202A9304603F04FFE3AE0272000013F
:10541000221802A9304603F005FF32E00120800285
:10542000221802A9304603F02EFF2AE02520400171
:10543000221802A9304603F020FE22E0164801E0BF
:105440009B20C000221802A9304603F034FF18E068
:1054500002A9304603F011FB607012E002A9304649
:1054600003F00BFBA0700CE002A9304603F005FB33
:10547000E07006E008486830221802A9304603F0C0
:10548000B3FD6D1C0F2D9DDB69460C20085606B040
:1054900070BD01487830EFE7A4040000FEB5164661
:1054A00005221202841800201860E0680190E0696B
:1054B0000F46014600901D460198FBF7D3FA2ED007
:1054C00001990098FAF759FF3968FAF75EFF0199D8
:1054D000FAF702FF002104F0C5FB0290286068493A
:1054E0000098FAF752FF6749FAF78CFF0099FAF72C
:1054F000F3FE0299FBF7B6FA0DD361490198FAF76A
:1055000044FF6049FAF77EFF0199FAF73AFF0299E2
:10551000FBF7B2FA01D2022000E003203070002035
:10552000686020690190206A009001460198FBF7AD
:1055300099FA2ED001990098FAF71FFF7968FAF7C7
:1055400024FF0199FAF7C8FE002104F08BFB0290BA
:1055500068604B490098FAF718FF4A49FAF752FF7A
:105560000099FAF7B9FE0299FBF77CFA0DD344498A
:105570000198FAF70AFF4349FAF744FF0199FAF74D
:1055800000FF0299FBF778FA01D2022000E0032025
:1055900070700020A86060690190606A0090014608
:1055A0000198FBF75FFA2ED001990098FAF7E5FE13
:1055B000B968FAF7EAFE0199FAF78EFE002104F0C5
:1055C00051FB0290A8602E490098FAF7DEFE2D49A3
:1055D000FAF718FF0099FAF77FFE0299FBF742FAF3
:1055E0000DD327490198FAF7D0FE2649FAF70AFFAA
:1055F0000199FAF7C6FE0299FBF73EFA01D20220A2
:1056000000E00320B0700020E860A0690190A06A6B
:10561000009001460198FBF725FA30D001990098D7
:10562000FAF7ABFEF968FAF7B0FE0199FAF754FE03
:10563000002104F017FBE860114D0446294600984C
:10564000FAF7A3FE0F4F3946FAF7DCFE0099FAF796
:1056500043FE2146FBF706FA0DD329460198FAF7D7
:1056600094FE3946FAF7CEFE0199FAF78AFE2146F2
:10567000FBF702FA01D2022000E00320F070FEBD29
:10568000000020410000C842FFB591B004462199B6
:1056900000201F9E087030602099086022990870D1
:1056A00070602099486022994870B06020998860A5
:1056B00022998870F0602099C8602299C8701046BD
:1056C00005F066FCFBF7F7F8401CC5B21520800119
:1056D0002718787D002816D0012D41D1002078753B
:1056E00038750520E17800022018002901D01A99A8
:1056F00081656178002901D01B99C165A1780029D5
:1057000001D01C990166387D1499401C491CC0B217
:10571000C9B2FAF70DFDA9421FD1A9000A19052146
:105720003D7509025118129888621498854217D164
:105730006B4620461E9A1D9900F022F90DAB0D22F2
:105740006946204600F016F81E9801280AD00DADD3
:105750000FCD0FC6219803210170204600F0B2F949
:1057600015B0F0BD0DA92046209B229AFFF796FEAA
:10577000F3E70000FFB50646252040010D4630182E
:10578000ABB0017808914178079180781446314692
:105790000C90282208310DA8FAF773FD0DA800908F
:1057A0003046683001950899029000250B940A91C3
:1057B0001BE00B980024AF00099012E00198A100B3
:1057C00041580A2060434019820002988058FAF735
:1057D000DCFD0099C959FAF77FFD01460098641C69
:1057E000C15109988442E9DB6D1C0A988542E0DBCF
:1057F00017A8029000203849019100900DA9304669
:10580000089AFFF77BFD0121890271180798099119
:10581000002857D031462822303121A8FAF731FD2F
:1058200021A800902720000130180B9017A80190A4
:105830000899079800250A9108901AE00A98002410
:10584000AF00029011E00198A10041580A20604386
:10585000401982000B988058FAF797FD0099C959B2
:10586000FAF73AFD0099641CC85102988442EADBB9
:105870006D1C08988542E1DB0DA8029001210020F3
:1058800089070191009021A93046079AFFF736FD5C
:10589000304658300FC803AC0FC407980C9B0090DB
:1058A0000DAA03A8099902F066F82E98029000202C
:1058B0000A490191009003A930460C9A01F062FE5A
:1058C0002FB0F0BD304658300FC803AC0FC4089855
:1058D000009017AA0C9BE4E70000F03F000008408E
:1058E000FFB585B00646062069460871307801AAE2
:1058F000069901F0D1FC69460090087903901520C3
:1059000080013718052000240002351823E0601CB0
:10591000C0B20300FCF7BFFF071E050D0F16182FBE
:105920001E0016486B463018079A069903F05FF977
:1059300010E0387D00E0787D6B46079A069903F009
:10594000A5F807E0A86D00E0E86D6B46079A069998
:1059500003F074F8641C03988442D8DB694600980D
:1059600008810698097A017069460698497A41705B
:10597000009809B0F0BD286EE7E700002C05000094
:10598000F0B5064605200C4600020021371899B0F4
:105990001D46012A29D0002001AA8300401CD150B5
:1059A0000D28FADB46482822311801A8FAF769FCCD
:1059B000F86D0B90B86D0C90386E16962F460D90C2
:1059C00001AE00251698AC0021180920C001081866
:1059D000816D00914900090E6BD0416A3059FAF788
:1059E000CCFC0099FAF70EFD64E000208200401C18
:1059F000A9500D28FADB14A8009012AB10AA0EA92A
:105A0000204603F07BF80E9804F072FB00900F988C
:105A100004F06EFB0099FAF7B0FC00241790A00088
:105A200081191690052000020818C06A04F060FB76
:105A30000099FAF7A2FC1799FAF7E4FC01461698C8
:105A4000641C29500A2CEADBF07800280DD010994C
:105A500011980C46FAF791FC00902146B86DFAF7C0
:105A60008CFC0099FAF7CEFCE862707800280DD023
:105A7000129913980C46FAF780FC00902146F86DB5
:105A8000FAF77BFC0099FAF7BDFCA862B078002811
:105A90000DD0149915980E46FAF76FFC044631465E
:105AA000386EFAF76AFC2146FAF7ACFC286319B0A5
:105AB000F0BD30596D1C38510D2D83DBF7E7000028
:105AC0002C050000002110B505230A461B028C009E
:105AD0002418E418491CE2620A29F8DB152189011F
